{
  "contractName": "DecentralBank",
  "abi": [
    {
      "inputs": [
        {
          "internalType": "contract RWD",
          "name": "_rwd",
          "type": "address"
        },
        {
          "internalType": "contract Tether",
          "name": "_tether",
          "type": "address"
        }
      ],
      "stateMutability": "nonpayable",
      "type": "constructor"
    },
    {
      "inputs": [
        {
          "internalType": "address",
          "name": "",
          "type": "address"
        }
      ],
      "name": "hasStaked",
      "outputs": [
        {
          "internalType": "bool",
          "name": "",
          "type": "bool"
        }
      ],
      "stateMutability": "view",
      "type": "function",
      "constant": true
    },
    {
      "inputs": [
        {
          "internalType": "address",
          "name": "",
          "type": "address"
        }
      ],
      "name": "isStaking",
      "outputs": [
        {
          "internalType": "bool",
          "name": "",
          "type": "bool"
        }
      ],
      "stateMutability": "view",
      "type": "function",
      "constant": true
    },
    {
      "inputs": [],
      "name": "name",
      "outputs": [
        {
          "internalType": "string",
          "name": "",
          "type": "string"
        }
      ],
      "stateMutability": "view",
      "type": "function",
      "constant": true
    },
    {
      "inputs": [],
      "name": "owner",
      "outputs": [
        {
          "internalType": "address",
          "name": "",
          "type": "address"
        }
      ],
      "stateMutability": "view",
      "type": "function",
      "constant": true
    },
    {
      "inputs": [],
      "name": "rwd",
      "outputs": [
        {
          "internalType": "contract RWD",
          "name": "",
          "type": "address"
        }
      ],
      "stateMutability": "view",
      "type": "function",
      "constant": true
    },
    {
      "inputs": [
        {
          "internalType": "uint256",
          "name": "",
          "type": "uint256"
        }
      ],
      "name": "stakers",
      "outputs": [
        {
          "internalType": "address",
          "name": "",
          "type": "address"
        }
      ],
      "stateMutability": "view",
      "type": "function",
      "constant": true
    },
    {
      "inputs": [
        {
          "internalType": "address",
          "name": "",
          "type": "address"
        }
      ],
      "name": "stakingBalance",
      "outputs": [
        {
          "internalType": "uint256",
          "name": "",
          "type": "uint256"
        }
      ],
      "stateMutability": "view",
      "type": "function",
      "constant": true
    },
    {
      "inputs": [],
      "name": "tether",
      "outputs": [
        {
          "internalType": "contract Tether",
          "name": "",
          "type": "address"
        }
      ],
      "stateMutability": "view",
      "type": "function",
      "constant": true
    },
    {
      "inputs": [
        {
          "internalType": "uint256",
          "name": "_amount",
          "type": "uint256"
        }
      ],
      "name": "depositTokens",
      "outputs": [],
      "stateMutability": "nonpayable",
      "type": "function"
    },
    {
      "inputs": [],
      "name": "issueTokens",
      "outputs": [],
      "stateMutability": "nonpayable",
      "type": "function"
    }
  ],
  "bytecode": "0x60806040526040518060400160405280600e81526020017f446563656e7472616c2042616e6b000000000000000000000000000000000000815250600090805190602001906200005192919062000150565b503480156200005f57600080fd5b50604051620012603803806200126083398181016040528101906200008591906200022e565b81600360006101000a81548173ffffffffffffffffffffffffffffffffffffffff021916908373ffffffffffffffffffffffffffffffffffffffff16021790555080600260006101000a81548173ffffffffffffffffffffffffffffffffffffffff021916908373ffffffffffffffffffffffffffffffffffffffff16021790555033600160006101000a81548173ffffffffffffffffffffffffffffffffffffffff021916908373ffffffffffffffffffffffffffffffffffffffff16021790555050506200036f565b8280546200015e90620002d1565b90600052602060002090601f016020900481019282620001825760008555620001ce565b82601f106200019d57805160ff1916838001178555620001ce565b82800160010185558215620001ce579182015b82811115620001cd578251825591602001919060010190620001b0565b5b509050620001dd9190620001e1565b5090565b5b80821115620001fc576000816000905550600101620001e2565b5090565b60008151905062000211816200033b565b92915050565b600081519050620002288162000355565b92915050565b6000806040838503121562000248576200024762000336565b5b6000620002588582860162000200565b92505060206200026b8582860162000217565b9150509250929050565b60006200028282620002b1565b9050919050565b6000620002968262000275565b9050919050565b6000620002aa8262000275565b9050919050565b600073ffffffffffffffffffffffffffffffffffffffff82169050919050565b60006002820490506001821680620002ea57607f821691505b6020821081141562000301576200030062000307565b5b50919050565b7f4e487b7100000000000000000000000000000000000000000000000000000000600052602260045260246000fd5b600080fd5b620003468162000289565b81146200035257600080fd5b50565b62000360816200029d565b81146200036c57600080fd5b50565b610ee1806200037f6000396000f3fe608060405234801561001057600080fd5b506004361061009e5760003560e01c80636f49712b116100665780636f49712b146101375780638da5cb5b14610167578063c93c8f3414610185578063dd49756e146101b5578063fd5e6dd1146101d15761009e565b806306fdde03146100a35780631a8972d3146100c157806345bc78ab146100df5780635efc071a1461010f57806360ab58521461012d575b600080fd5b6100ab610201565b6040516100b89190610ae4565b60405180910390f35b6100c961028f565b6040516100d69190610aae565b60405180910390f35b6100f960048036038101906100f491906108c7565b6102b5565b6040516101069190610b46565b60405180910390f35b6101176102cd565b6040516101249190610ac9565b60405180910390f35b6101356102f3565b005b610151600480360381019061014c91906108c7565b6104f8565b60405161015e9190610a93565b60405180910390f35b61016f610518565b60405161017c9190610a18565b60405180910390f35b61019f600480360381019061019a91906108c7565b61053e565b6040516101ac9190610a93565b60405180910390f35b6101cf60048036038101906101ca9190610921565b61055e565b005b6101eb60048036038101906101e69190610921565b610849565b6040516101f89190610a18565b60405180910390f35b6000805461020e90610cc7565b80601f016020809104026020016040519081016040528092919081815260200182805461023a90610cc7565b80156102875780601f1061025c57610100808354040283529160200191610287565b820191906000526020600020905b81548152906001019060200180831161026a57829003601f168201915b505050505081565b600360009054906101000a900473ffffffffffffffffffffffffffffffffffffffff1681565b60056020528060005260406000206000915090505481565b600260009054906101000a900473ffffffffffffffffffffffffffffffffffffffff1681565b600160009054906101000a900473ffffffffffffffffffffffffffffffffffffffff1673ffffffffffffffffffffffffffffffffffffffff163373ffffffffffffffffffffffffffffffffffffffff1614610383576040517f08c379a000000000000000000000000000000000000000000000000000000000815260040161037a90610b26565b60405180910390fd5b60005b6004805490508110156104f5576000600482815481106103a9576103a8610dcf565b5b9060005260206000200160009054906101000a900473ffffffffffffffffffffffffffffffffffffffff16905060006009600560008473ffffffffffffffffffffffffffffffffffffffff1673ffffffffffffffffffffffffffffffffffffffff168152602001908152602001600020546104249190610bd3565b905060008111156104e057600360009054906101000a900473ffffffffffffffffffffffffffffffffffffffff1673ffffffffffffffffffffffffffffffffffffffff1663a9059cbb83836040518363ffffffff1660e01b815260040161048c929190610a6a565b602060405180830381600087803b1580156104a657600080fd5b505af11580156104ba573d6000803e3d6000fd5b505050506040513d601f19601f820116820180604052508101906104de91906108f4565b505b505080806104ed90610cf9565b915050610386565b50565b60076020528060005260406000206000915054906101000a900460ff1681565b600160009054906101000a900473ffffffffffffffffffffffffffffffffffffffff1681565b60066020528060005260406000206000915054906101000a900460ff1681565b600081116105a1576040517f08c379a000000000000000000000000000000000000000000000000000000000815260040161059890610b06565b60405180910390fd5b600260009054906101000a900473ffffffffffffffffffffffffffffffffffffffff1673ffffffffffffffffffffffffffffffffffffffff166323b872dd3330846040518463ffffffff1660e01b815260040161060093929190610a33565b602060405180830381600087803b15801561061a57600080fd5b505af115801561062e573d6000803e3d6000fd5b505050506040513d601f19601f8201168201806040525081019061065291906108f4565b5080600560003373ffffffffffffffffffffffffffffffffffffffff1673ffffffffffffffffffffffffffffffffffffffff1681526020019081526020016000205461069e9190610b7d565b600560003373ffffffffffffffffffffffffffffffffffffffff1673ffffffffffffffffffffffffffffffffffffffff16815260200190815260200160002081905550600660003373ffffffffffffffffffffffffffffffffffffffff1673ffffffffffffffffffffffffffffffffffffffff16815260200190815260200160002060009054906101000a900460ff16610796576004339080600181540180825580915050600190039060005260206000200160009091909190916101000a81548173ffffffffffffffffffffffffffffffffffffffff021916908373ffffffffffffffffffffffffffffffffffffffff1602179055505b6001600760003373ffffffffffffffffffffffffffffffffffffffff1673ffffffffffffffffffffffffffffffffffffffff16815260200190815260200160002060006101000a81548160ff0219169083151502179055506001600660003373ffffffffffffffffffffffffffffffffffffffff1673ffffffffffffffffffffffffffffffffffffffff16815260200190815260200160002060006101000a81548160ff02191690831515021790555050565b6004818154811061085957600080fd5b906000526020600020016000915054906101000a900473ffffffffffffffffffffffffffffffffffffffff1681565b60008135905061089781610e66565b92915050565b6000815190506108ac81610e7d565b92915050565b6000813590506108c181610e94565b92915050565b6000602082840312156108dd576108dc610dfe565b5b60006108eb84828501610888565b91505092915050565b60006020828403121561090a57610909610dfe565b5b60006109188482850161089d565b91505092915050565b60006020828403121561093757610936610dfe565b5b6000610945848285016108b2565b91505092915050565b61095781610c04565b82525050565b61096681610c16565b82525050565b61097581610c4c565b82525050565b61098481610c5e565b82525050565b600061099582610b61565b61099f8185610b6c565b93506109af818560208601610c94565b6109b881610e03565b840191505092915050565b60006109d0601583610b6c565b91506109db82610e14565b602082019050919050565b60006109f3601483610b6c565b91506109fe82610e3d565b602082019050919050565b610a1281610c42565b82525050565b6000602082019050610a2d600083018461094e565b92915050565b6000606082019050610a48600083018661094e565b610a55602083018561094e565b610a626040830184610a09565b949350505050565b6000604082019050610a7f600083018561094e565b610a8c6020830184610a09565b9392505050565b6000602082019050610aa8600083018461095d565b92915050565b6000602082019050610ac3600083018461096c565b92915050565b6000602082019050610ade600083018461097b565b92915050565b60006020820190508181036000830152610afe818461098a565b905092915050565b60006020820190508181036000830152610b1f816109c3565b9050919050565b60006020820190508181036000830152610b3f816109e6565b9050919050565b6000602082019050610b5b6000830184610a09565b92915050565b600081519050919050565b600082825260208201905092915050565b6000610b8882610c42565b9150610b9383610c42565b9250827fffffffffffffffffffffffffffffffffffffffffffffffffffffffffffffffff03821115610bc857610bc7610d42565b5b828201905092915050565b6000610bde82610c42565b9150610be983610c42565b925082610bf957610bf8610d71565b5b828204905092915050565b6000610c0f82610c22565b9050919050565b60008115159050919050565b600073ffffffffffffffffffffffffffffffffffffffff82169050919050565b6000819050919050565b6000610c5782610c70565b9050919050565b6000610c6982610c70565b9050919050565b6000610c7b82610c82565b9050919050565b6000610c8d82610c22565b9050919050565b60005b83811015610cb2578082015181840152602081019050610c97565b83811115610cc1576000848401525b50505050565b60006002820490506001821680610cdf57607f821691505b60208210811415610cf357610cf2610da0565b5b50919050565b6000610d0482610c42565b91507fffffffffffffffffffffffffffffffffffffffffffffffffffffffffffffffff821415610d3757610d36610d42565b5b600182019050919050565b7f4e487b7100000000000000000000000000000000000000000000000000000000600052601160045260246000fd5b7f4e487b7100000000000000000000000000000000000000000000000000000000600052601260045260246000fd5b7f4e487b7100000000000000000000000000000000000000000000000000000000600052602260045260246000fd5b7f4e487b7100000000000000000000000000000000000000000000000000000000600052603260045260246000fd5b600080fd5b6000601f19601f8301169050919050565b7f616d6f756e742063616e6e6f74206265207a65726f0000000000000000000000600082015250565b7f63616c6c6572206d757374206265206f776e6572000000000000000000000000600082015250565b610e6f81610c04565b8114610e7a57600080fd5b50565b610e8681610c16565b8114610e9157600080fd5b50565b610e9d81610c42565b8114610ea857600080fd5b5056fea2646970667358221220c33a6dcdc4bf3d3e2bb031579bbe9ac36082bea4bd92ebb125667a34c28aae8c64736f6c63430008070033",
  "immutableReferences": {},
  "source": "// SPDX-License-Identifier: MIT\npragma solidity >=0.4.22 <0.9.0;\n\nimport './RWD.sol';\nimport \"./Tether.sol\";\n\n         \ncontract DecentralBank {\n  string public name=\"Decentral Bank\";\n  address public owner;\n  Tether public tether;\n  RWD public rwd;\n\n  \nconstructor (RWD _rwd,Tether _tether){\n    rwd=_rwd;\n    tether=_tether;\n    owner=msg.sender;\n\n}\naddress[] public stakers;\nmapping(address=>uint) public stakingBalance;\n// You can't loop through the keys or count the keys in a mapping. to keep tracking if this address is used for staking, we create another mapping\nmapping(address=>bool) public hasStaked;\nmapping(address=>bool) public isStaking;\n\n\n//In order for this to work we need to have permission\n// staking function. we are depositing out tokens into this contract\nfunction depositTokens(uint _amount) public{\n  require(_amount>0,'amount cannot be zero');\n  // transfer tether to this contract address for staking\n  // transferFrom means it is coming from third party\n  // all erc20 tokens have trsnferFrom \n  tether.transferFrom(msg.sender,address(this), _amount);\n  // Update the staking balance\n  // Every key maps to something. If no value has been set yet, then the value is 0.\n  stakingBalance[msg.sender]=stakingBalance[msg.sender]+_amount;\n  if(!hasStaked[msg.sender]){\n    stakers.push(msg.sender);\n  }\n  isStaking[msg.sender]=true;\n  hasStaked[msg.sender]=true;\n}\n\n// Issue rewards\nfunction issueTokens() public {\n  require(msg.sender==owner,'caller must be owner');\n  for(uint i=0;i<stakers.length;i++){\n    address recipient=stakers[i];\n    uint balance=stakingBalance[recipient]/9;\n    if(balance>0){\n           rwd.transfer(recipient, balance);\n    }\n  }\n\n}\n\n}\n",
  "sourcePath": "/home/tesla/Documents/projects/ethereum/clarion-ethereum/contracts/DecentralBank.sol",
  "compiler": {
    "name": "solc",
    "version": "0.8.7+commit.e28d00a7.Emscripten.clang"
  },
  "schemaVersion": "3.4.3",
  "updatedAt": "2021-08-25T16:13:51.662Z",
  "networkType": "ethereum",
  "devdoc": {
    "kind": "dev",
    "methods": {},
    "version": 1
  },
  "userdoc": {
    "kind": "user",
    "methods": {},
    "version": 1
  }
}