{
  "contractName": "Tether",
  "abi": [
    {
      "inputs": [],
      "stateMutability": "nonpayable",
      "type": "constructor"
    },
    {
      "anonymous": false,
      "inputs": [
        {
          "indexed": true,
          "internalType": "address",
          "name": "_owner",
          "type": "address"
        },
        {
          "indexed": true,
          "internalType": "address",
          "name": "_spender",
          "type": "address"
        },
        {
          "indexed": false,
          "internalType": "uint256",
          "name": "_value",
          "type": "uint256"
        }
      ],
      "name": "Approval",
      "type": "event"
    },
    {
      "anonymous": false,
      "inputs": [
        {
          "indexed": true,
          "internalType": "address",
          "name": "_from",
          "type": "address"
        },
        {
          "indexed": true,
          "internalType": "address",
          "name": "_to",
          "type": "address"
        },
        {
          "indexed": false,
          "internalType": "uint256",
          "name": "_value",
          "type": "uint256"
        }
      ],
      "name": "Transfer",
      "type": "event"
    },
    {
      "inputs": [
        {
          "internalType": "address",
          "name": "",
          "type": "address"
        },
        {
          "internalType": "address",
          "name": "",
          "type": "address"
        }
      ],
      "name": "allowance",
      "outputs": [
        {
          "internalType": "uint256",
          "name": "",
          "type": "uint256"
        }
      ],
      "stateMutability": "view",
      "type": "function",
      "constant": true
    },
    {
      "inputs": [
        {
          "internalType": "address",
          "name": "",
          "type": "address"
        }
      ],
      "name": "balanceOf",
      "outputs": [
        {
          "internalType": "uint256",
          "name": "",
          "type": "uint256"
        }
      ],
      "stateMutability": "view",
      "type": "function",
      "constant": true
    },
    {
      "inputs": [],
      "name": "decimanls",
      "outputs": [
        {
          "internalType": "uint8",
          "name": "",
          "type": "uint8"
        }
      ],
      "stateMutability": "view",
      "type": "function",
      "constant": true
    },
    {
      "inputs": [],
      "name": "name",
      "outputs": [
        {
          "internalType": "string",
          "name": "",
          "type": "string"
        }
      ],
      "stateMutability": "view",
      "type": "function",
      "constant": true
    },
    {
      "inputs": [],
      "name": "symbol",
      "outputs": [
        {
          "internalType": "string",
          "name": "",
          "type": "string"
        }
      ],
      "stateMutability": "view",
      "type": "function",
      "constant": true
    },
    {
      "inputs": [],
      "name": "totalSupply",
      "outputs": [
        {
          "internalType": "uint256",
          "name": "",
          "type": "uint256"
        }
      ],
      "stateMutability": "view",
      "type": "function",
      "constant": true
    },
    {
      "inputs": [
        {
          "internalType": "address",
          "name": "_to",
          "type": "address"
        },
        {
          "internalType": "uint256",
          "name": "_value",
          "type": "uint256"
        }
      ],
      "name": "transfer",
      "outputs": [
        {
          "internalType": "bool",
          "name": "success",
          "type": "bool"
        }
      ],
      "stateMutability": "nonpayable",
      "type": "function"
    },
    {
      "inputs": [
        {
          "internalType": "address",
          "name": "_spender",
          "type": "address"
        },
        {
          "internalType": "uint256",
          "name": "_value",
          "type": "uint256"
        }
      ],
      "name": "approve",
      "outputs": [
        {
          "internalType": "bool",
          "name": "success",
          "type": "bool"
        }
      ],
      "stateMutability": "nonpayable",
      "type": "function"
    },
    {
      "inputs": [
        {
          "internalType": "address",
          "name": "_from",
          "type": "address"
        },
        {
          "internalType": "address",
          "name": "_to",
          "type": "address"
        },
        {
          "internalType": "uint256",
          "name": "_value",
          "type": "uint256"
        }
      ],
      "name": "transferFrom",
      "outputs": [
        {
          "internalType": "bool",
          "name": "success",
          "type": "bool"
        }
      ],
      "stateMutability": "nonpayable",
      "type": "function"
    }
  ],
  "bytecode": "0x60806040526040518060400160405280601181526020017f4d6f636b2054657468657220546f6b656e000000000000000000000000000000815250600090805190602001906200005192919062000124565b506040518060400160405280600481526020017f5553445400000000000000000000000000000000000000000000000000000000815250600190805190602001906200009f92919062000124565b5069d3c21bcecceda10000006002556012600360006101000a81548160ff021916908360ff160217905550348015620000d757600080fd5b50600254600460003373ffffffffffffffffffffffffffffffffffffffff1673ffffffffffffffffffffffffffffffffffffffff1681526020019081526020016000208190555062000239565b8280546200013290620001d4565b90600052602060002090601f016020900481019282620001565760008555620001a2565b82601f106200017157805160ff1916838001178555620001a2565b82800160010185558215620001a2579182015b82811115620001a157825182559160200191906001019062000184565b5b509050620001b19190620001b5565b5090565b5b80821115620001d0576000816000905550600101620001b6565b5090565b60006002820490506001821680620001ed57607f821691505b602082108114156200020457620002036200020a565b5b50919050565b7f4e487b7100000000000000000000000000000000000000000000000000000000600052602260045260246000fd5b610c8e80620002496000396000f3fe608060405234801561001057600080fd5b50600436106100935760003560e01c806343ebadfa1161006657806343ebadfa1461013457806370a082311461015257806395d89b4114610182578063a9059cbb146101a0578063dd62ed3e146101d057610093565b806306fdde0314610098578063095ea7b3146100b657806318160ddd146100e657806323b872dd14610104575b600080fd5b6100a0610200565b6040516100ad91906109fe565b60405180910390f35b6100d060048036038101906100cb919061093d565b61028e565b6040516100dd91906109e3565b60405180910390f35b6100ee610380565b6040516100fb9190610a20565b60405180910390f35b61011e600480360381019061011991906108ea565b610386565b60405161012b91906109e3565b60405180910390f35b61013c61060c565b6040516101499190610a3b565b60405180910390f35b61016c6004803603810190610167919061087d565b61061f565b6040516101799190610a20565b60405180910390f35b61018a610637565b60405161019791906109fe565b60405180910390f35b6101ba60048036038101906101b5919061093d565b6106c5565b6040516101c791906109e3565b60405180910390f35b6101ea60048036038101906101e591906108aa565b61082e565b6040516101f79190610a20565b60405180910390f35b6000805461020d90610b84565b80601f016020809104026020016040519081016040528092919081815260200182805461023990610b84565b80156102865780601f1061025b57610100808354040283529160200191610286565b820191906000526020600020905b81548152906001019060200180831161026957829003601f168201915b505050505081565b600081600560003373ffffffffffffffffffffffffffffffffffffffff1673ffffffffffffffffffffffffffffffffffffffff16815260200190815260200160002060008573ffffffffffffffffffffffffffffffffffffffff1673ffffffffffffffffffffffffffffffffffffffff168152602001908152602001600020819055508273ffffffffffffffffffffffffffffffffffffffff163373ffffffffffffffffffffffffffffffffffffffff167f8c5be1e5ebec7d5bd14f71427d1e84f3dd0314c0f7b2291e5b200ac8c7c3b9258460405161036e9190610a20565b60405180910390a36001905092915050565b60025481565b6000600460008573ffffffffffffffffffffffffffffffffffffffff1673ffffffffffffffffffffffffffffffffffffffff168152602001908152602001600020548211156103d457600080fd5b600560008573ffffffffffffffffffffffffffffffffffffffff1673ffffffffffffffffffffffffffffffffffffffff16815260200190815260200160002060003373ffffffffffffffffffffffffffffffffffffffff1673ffffffffffffffffffffffffffffffffffffffff1681526020019081526020016000205482111561045d57600080fd5b81600460008573ffffffffffffffffffffffffffffffffffffffff1673ffffffffffffffffffffffffffffffffffffffff16815260200190815260200160002060008282546104ac9190610a72565b9250508190555081600460008673ffffffffffffffffffffffffffffffffffffffff1673ffffffffffffffffffffffffffffffffffffffff16815260200190815260200160002060008282546105029190610ac8565b9250508190555081600560003373ffffffffffffffffffffffffffffffffffffffff1673ffffffffffffffffffffffffffffffffffffffff16815260200190815260200160002060008673ffffffffffffffffffffffffffffffffffffffff1673ffffffffffffffffffffffffffffffffffffffff16815260200190815260200160002060008282546105959190610ac8565b925050819055508273ffffffffffffffffffffffffffffffffffffffff168473ffffffffffffffffffffffffffffffffffffffff167fddf252ad1be2c89b69c2b068fc378daa952ba7f163c4a11628f55a4df523b3ef846040516105f99190610a20565b60405180910390a3600190509392505050565b600360009054906101000a900460ff1681565b60046020528060005260406000206000915090505481565b6001805461064490610b84565b80601f016020809104026020016040519081016040528092919081815260200182805461067090610b84565b80156106bd5780601f10610692576101008083540402835291602001916106bd565b820191906000526020600020905b8154815290600101906020018083116106a057829003601f168201915b505050505081565b600081600460003373ffffffffffffffffffffffffffffffffffffffff1673ffffffffffffffffffffffffffffffffffffffff16815260200190815260200160002054101561071357600080fd5b81600460003373ffffffffffffffffffffffffffffffffffffffff1673ffffffffffffffffffffffffffffffffffffffff16815260200190815260200160002060008282546107629190610ac8565b9250508190555081600460008573ffffffffffffffffffffffffffffffffffffffff1673ffffffffffffffffffffffffffffffffffffffff16815260200190815260200160002060008282546107b89190610a72565b925050819055508273ffffffffffffffffffffffffffffffffffffffff163373ffffffffffffffffffffffffffffffffffffffff167fddf252ad1be2c89b69c2b068fc378daa952ba7f163c4a11628f55a4df523b3ef8460405161081c9190610a20565b60405180910390a36001905092915050565b6005602052816000526040600020602052806000526040600020600091509150505481565b60008135905061086281610c2a565b92915050565b60008135905061087781610c41565b92915050565b60006020828403121561089357610892610c14565b5b60006108a184828501610853565b91505092915050565b600080604083850312156108c1576108c0610c14565b5b60006108cf85828601610853565b92505060206108e085828601610853565b9150509250929050565b60008060006060848603121561090357610902610c14565b5b600061091186828701610853565b935050602061092286828701610853565b925050604061093386828701610868565b9150509250925092565b6000806040838503121561095457610953610c14565b5b600061096285828601610853565b925050602061097385828601610868565b9150509250929050565b61098681610b0e565b82525050565b600061099782610a56565b6109a18185610a61565b93506109b1818560208601610b51565b6109ba81610c19565b840191505092915050565b6109ce81610b3a565b82525050565b6109dd81610b44565b82525050565b60006020820190506109f8600083018461097d565b92915050565b60006020820190508181036000830152610a18818461098c565b905092915050565b6000602082019050610a3560008301846109c5565b92915050565b6000602082019050610a5060008301846109d4565b92915050565b600081519050919050565b600082825260208201905092915050565b6000610a7d82610b3a565b9150610a8883610b3a565b9250827fffffffffffffffffffffffffffffffffffffffffffffffffffffffffffffffff03821115610abd57610abc610bb6565b5b828201905092915050565b6000610ad382610b3a565b9150610ade83610b3a565b925082821015610af157610af0610bb6565b5b828203905092915050565b6000610b0782610b1a565b9050919050565b60008115159050919050565b600073ffffffffffffffffffffffffffffffffffffffff82169050919050565b6000819050919050565b600060ff82169050919050565b60005b83811015610b6f578082015181840152602081019050610b54565b83811115610b7e576000848401525b50505050565b60006002820490506001821680610b9c57607f821691505b60208210811415610bb057610baf610be5565b5b50919050565b7f4e487b7100000000000000000000000000000000000000000000000000000000600052601160045260246000fd5b7f4e487b7100000000000000000000000000000000000000000000000000000000600052602260045260246000fd5b600080fd5b6000601f19601f8301169050919050565b610c3381610afc565b8114610c3e57600080fd5b50565b610c4a81610b3a565b8114610c5557600080fd5b5056fea26469706673582212204e23df9f61bef3dc27dc509e3d70eff01998199030537a0ce45e3d66d9c5163664736f6c63430008070033",
  "immutableReferences": {},
  "source": "//SPDX-License-Identifier: MIT\npragma solidity >=0.4.22 <0.9.0;\n\ncontract Tether{\n    string public name='Mock Tether Token';\n    string public symbol='USDT';\n    // uint256 public totalSupply=10000000000000000;\n    uint256 public totalSupply = 1000000000000000000000000; // 1 million tokens\n    uint8 public decimanls=18;\n\n\n       //  indexed allow us to filter through the address so we can searc for them. it costs gas\n       // maximum u can use 3 indexed per event\n    event Transfer(\n        address indexed _from,\n        address indexed _to,\n        uint _value\n\n    );\n    //  only owner calls this. this is for security layer\n    event Approval(\n        address indexed _owner,\n        address indexed _spender,\n        \n        uint _value\n\n    );\n\n    mapping(address=>uint) public balanceOf;\n    mapping(address=>mapping(address=>uint)) public allowance;\n\n\n    constructor(){\n        balanceOf[msg.sender]=totalSupply;\n\n    }\n\n    function transfer(address _to, uint _value) public returns (bool success){\n        require(balanceOf[msg.sender]>=_value);\n        balanceOf[msg.sender]-=_value;\n        balanceOf[_to]+=_value;\n        emit Transfer(msg.sender,_to,_value);\n        return true;\n    }\n\n    function approve(address _spender, uint _value)public returns (bool success){\n        allowance[msg.sender][_spender]=_value;\n        emit Approval(msg.sender,_spender,_value);\n        return true;\n    }\n\n    // transferFrom allows 3rd parties to run transactions, with the approval, these 3rd parties can do events such as pay for gas fees, make transfer and do transfers on behalf\n    function transferFrom(address _from, address _to, uint256 _value) public returns (bool success){\n        require(_value <=balanceOf[_from]);\n        require(_value <=allowance[_from][msg.sender]);\n\n        balanceOf[_to]+=_value;\n        balanceOf[_from]-=_value;\n        allowance[msg.sender][_from]-=_value;\n        emit Transfer(_from,_to,_value);\n        return true;\n\n\n    }\n}\n// contract Tether {\n//     string  public name = \"Mock Tether Token\";\n//     string  public symbol = \"mUSDT\";\n//     uint256 public totalSupply = 1000000000000000000000000; // 1 million tokens\n//     uint8   public decimals = 18;\n\n//     event Transfer(\n//         address indexed _from,\n//         address indexed _to, \n//         uint _value\n//     );\n\n//     event Approval(\n//         address indexed _owner,\n//         address indexed _spender, \n//         uint _value\n//     );\n\n//     mapping(address => uint256) public balanceOf;\n//     mapping(address => mapping(address => uint256)) public allowance;\n    \n//     constructor() {\n//         balanceOf[msg.sender] = totalSupply;\n//     }\n\n//     function transfer(address _to, uint256 _value) public returns (bool success) {\n//         // require that the value is greater or equal for transfer\n//         require(balanceOf[msg.sender] >= _value);\n//          // transfer the amount and subtract the balance\n//         balanceOf[msg.sender] -= _value;\n//         // add the balance\n//         balanceOf[_to] += _value;\n//         emit Transfer(msg.sender, _to, _value);\n//         return true;\n//     }\n\n//     function approve(address _spender, uint256 _value) public returns (bool success) {\n//         allowance[msg.sender][_spender] = _value;\n//         emit Approval(msg.sender, _spender, _value);\n//         return true;\n//     }\n\n//     function transferFrom(address _from, address _to, uint256 _value) public returns (bool success) {\n//         require(_value <= balanceOf[_from]);\n//         require(_value <= allowance[_from][msg.sender]);\n//         // add the balance for transferFrom\n//         balanceOf[_to] += _value;\n//         // subtract the balance for transferFrom\n//         balanceOf[_from] -= _value;\n//         allowance[msg.sender][_from] -= _value;\n//         emit Transfer(_from, _to, _value);\n//         return true;\n//     }\n// }\n",
  "sourcePath": "/home/tesla/Documents/projects/ethereum/clarion-ethereum/contracts/Tether.sol",
  "compiler": {
    "name": "solc",
    "version": "0.8.7+commit.e28d00a7.Emscripten.clang"
  },
  "schemaVersion": "3.4.3",
  "updatedAt": "2021-08-25T16:13:51.651Z",
  "networkType": "ethereum",
  "devdoc": {
    "kind": "dev",
    "methods": {},
    "version": 1
  },
  "userdoc": {
    "kind": "user",
    "methods": {},
    "version": 1
  }
}