{
  "contractName": "DecentralBank",
  "abi": [
    {
      "inputs": [
        {
          "internalType": "contract RWD",
          "name": "_rwd",
          "type": "address"
        },
        {
          "internalType": "contract Tether",
          "name": "_tether",
          "type": "address"
        }
      ],
      "stateMutability": "nonpayable",
      "type": "constructor"
    },
    {
      "inputs": [
        {
          "internalType": "address",
          "name": "",
          "type": "address"
        }
      ],
      "name": "hasStaked",
      "outputs": [
        {
          "internalType": "bool",
          "name": "",
          "type": "bool"
        }
      ],
      "stateMutability": "view",
      "type": "function",
      "constant": true
    },
    {
      "inputs": [
        {
          "internalType": "address",
          "name": "",
          "type": "address"
        }
      ],
      "name": "isStaking",
      "outputs": [
        {
          "internalType": "bool",
          "name": "",
          "type": "bool"
        }
      ],
      "stateMutability": "view",
      "type": "function",
      "constant": true
    },
    {
      "inputs": [],
      "name": "name",
      "outputs": [
        {
          "internalType": "string",
          "name": "",
          "type": "string"
        }
      ],
      "stateMutability": "view",
      "type": "function",
      "constant": true
    },
    {
      "inputs": [],
      "name": "owner",
      "outputs": [
        {
          "internalType": "address",
          "name": "",
          "type": "address"
        }
      ],
      "stateMutability": "view",
      "type": "function",
      "constant": true
    },
    {
      "inputs": [],
      "name": "rwd",
      "outputs": [
        {
          "internalType": "contract RWD",
          "name": "",
          "type": "address"
        }
      ],
      "stateMutability": "view",
      "type": "function",
      "constant": true
    },
    {
      "inputs": [
        {
          "internalType": "uint256",
          "name": "",
          "type": "uint256"
        }
      ],
      "name": "stakers",
      "outputs": [
        {
          "internalType": "address",
          "name": "",
          "type": "address"
        }
      ],
      "stateMutability": "view",
      "type": "function",
      "constant": true
    },
    {
      "inputs": [
        {
          "internalType": "address",
          "name": "",
          "type": "address"
        }
      ],
      "name": "stakingBalance",
      "outputs": [
        {
          "internalType": "uint256",
          "name": "",
          "type": "uint256"
        }
      ],
      "stateMutability": "view",
      "type": "function",
      "constant": true
    },
    {
      "inputs": [],
      "name": "tether",
      "outputs": [
        {
          "internalType": "contract Tether",
          "name": "",
          "type": "address"
        }
      ],
      "stateMutability": "view",
      "type": "function",
      "constant": true
    },
    {
      "inputs": [
        {
          "internalType": "uint256",
          "name": "_amount",
          "type": "uint256"
        }
      ],
      "name": "depositTokens",
      "outputs": [],
      "stateMutability": "nonpayable",
      "type": "function"
    },
    {
      "inputs": [],
      "name": "issueTokens",
      "outputs": [],
      "stateMutability": "nonpayable",
      "type": "function"
    },
    {
      "inputs": [],
      "name": "unstakeTokens",
      "outputs": [],
      "stateMutability": "nonpayable",
      "type": "function"
    }
  ],
  "bytecode": "0x60806040526040518060400160405280600e81526020017f446563656e7472616c2042616e6b000000000000000000000000000000000000815250600090805190602001906200005192919062000150565b503480156200005f57600080fd5b50604051620014de380380620014de83398181016040528101906200008591906200022e565b81600360006101000a81548173ffffffffffffffffffffffffffffffffffffffff021916908373ffffffffffffffffffffffffffffffffffffffff16021790555080600260006101000a81548173ffffffffffffffffffffffffffffffffffffffff021916908373ffffffffffffffffffffffffffffffffffffffff16021790555033600160006101000a81548173ffffffffffffffffffffffffffffffffffffffff021916908373ffffffffffffffffffffffffffffffffffffffff16021790555050506200036f565b8280546200015e90620002d1565b90600052602060002090601f016020900481019282620001825760008555620001ce565b82601f106200019d57805160ff1916838001178555620001ce565b82800160010185558215620001ce579182015b82811115620001cd578251825591602001919060010190620001b0565b5b509050620001dd9190620001e1565b5090565b5b80821115620001fc576000816000905550600101620001e2565b5090565b60008151905062000211816200033b565b92915050565b600081519050620002288162000355565b92915050565b6000806040838503121562000248576200024762000336565b5b6000620002588582860162000200565b92505060206200026b8582860162000217565b9150509250929050565b60006200028282620002b1565b9050919050565b6000620002968262000275565b9050919050565b6000620002aa8262000275565b9050919050565b600073ffffffffffffffffffffffffffffffffffffffff82169050919050565b60006002820490506001821680620002ea57607f821691505b6020821081141562000301576200030062000307565b5b50919050565b7f4e487b7100000000000000000000000000000000000000000000000000000000600052602260045260246000fd5b600080fd5b620003468162000289565b81146200035257600080fd5b50565b62000360816200029d565b81146200036c57600080fd5b50565b61115f806200037f6000396000f3fe608060405234801561001057600080fd5b50600436106100a95760003560e01c80636f49712b116100715780636f49712b146101425780638da5cb5b14610172578063a5ce413b14610190578063c93c8f341461019a578063dd49756e146101ca578063fd5e6dd1146101e6576100a9565b806306fdde03146100ae5780631a8972d3146100cc57806345bc78ab146100ea5780635efc071a1461011a57806360ab585214610138575b600080fd5b6100b6610216565b6040516100c39190610cf3565b60405180910390f35b6100d46102a4565b6040516100e19190610cbd565b60405180910390f35b61010460048036038101906100ff9190610ab3565b6102ca565b6040516101119190610d75565b60405180910390f35b6101226102e2565b60405161012f9190610cd8565b60405180910390f35b610140610308565b005b61015c60048036038101906101579190610ab3565b61050d565b6040516101699190610ca2565b60405180910390f35b61017a61052d565b6040516101879190610c27565b60405180910390f35b610198610553565b005b6101b460048036038101906101af9190610ab3565b61072a565b6040516101c19190610ca2565b60405180910390f35b6101e460048036038101906101df9190610b0d565b61074a565b005b61020060048036038101906101fb9190610b0d565b610a35565b60405161020d9190610c27565b60405180910390f35b6000805461022390610ef6565b80601f016020809104026020016040519081016040528092919081815260200182805461024f90610ef6565b801561029c5780601f106102715761010080835404028352916020019161029c565b820191906000526020600020905b81548152906001019060200180831161027f57829003601f168201915b505050505081565b600360009054906101000a900473ffffffffffffffffffffffffffffffffffffffff1681565b60056020528060005260406000206000915090505481565b600260009054906101000a900473ffffffffffffffffffffffffffffffffffffffff1681565b600160009054906101000a900473ffffffffffffffffffffffffffffffffffffffff1673ffffffffffffffffffffffffffffffffffffffff163373ffffffffffffffffffffffffffffffffffffffff1614610398576040517f08c379a000000000000000000000000000000000000000000000000000000000815260040161038f90610d55565b60405180910390fd5b60005b60048054905081101561050a576000600482815481106103be576103bd610ffe565b5b9060005260206000200160009054906101000a900473ffffffffffffffffffffffffffffffffffffffff16905060006009600560008473ffffffffffffffffffffffffffffffffffffffff1673ffffffffffffffffffffffffffffffffffffffff168152602001908152602001600020546104399190610e02565b905060008111156104f557600360009054906101000a900473ffffffffffffffffffffffffffffffffffffffff1673ffffffffffffffffffffffffffffffffffffffff1663a9059cbb83836040518363ffffffff1660e01b81526004016104a1929190610c79565b602060405180830381600087803b1580156104bb57600080fd5b505af11580156104cf573d6000803e3d6000fd5b505050506040513d601f19601f820116820180604052508101906104f39190610ae0565b505b5050808061050290610f28565b91505061039b565b50565b60076020528060005260406000206000915054906101000a900460ff1681565b600160009054906101000a900473ffffffffffffffffffffffffffffffffffffffff1681565b6000600560003373ffffffffffffffffffffffffffffffffffffffff1673ffffffffffffffffffffffffffffffffffffffff168152602001908152602001600020549050600081116105da576040517f08c379a00000000000000000000000000000000000000000000000000000000081526004016105d190610d15565b60405180910390fd5b600260009054906101000a900473ffffffffffffffffffffffffffffffffffffffff1673ffffffffffffffffffffffffffffffffffffffff1663a9059cbb33836040518363ffffffff1660e01b8152600401610637929190610c79565b602060405180830381600087803b15801561065157600080fd5b505af1158015610665573d6000803e3d6000fd5b505050506040513d601f19601f820116820180604052508101906106899190610ae0565b506000600560003373ffffffffffffffffffffffffffffffffffffffff1673ffffffffffffffffffffffffffffffffffffffff168152602001908152602001600020819055506000600760003373ffffffffffffffffffffffffffffffffffffffff1673ffffffffffffffffffffffffffffffffffffffff16815260200190815260200160002060006101000a81548160ff02191690831515021790555050565b60066020528060005260406000206000915054906101000a900460ff1681565b6000811161078d576040517f08c379a000000000000000000000000000000000000000000000000000000000815260040161078490610d35565b60405180910390fd5b600260009054906101000a900473ffffffffffffffffffffffffffffffffffffffff1673ffffffffffffffffffffffffffffffffffffffff166323b872dd3330846040518463ffffffff1660e01b81526004016107ec93929190610c42565b602060405180830381600087803b15801561080657600080fd5b505af115801561081a573d6000803e3d6000fd5b505050506040513d601f19601f8201168201806040525081019061083e9190610ae0565b5080600560003373ffffffffffffffffffffffffffffffffffffffff1673ffffffffffffffffffffffffffffffffffffffff1681526020019081526020016000205461088a9190610dac565b600560003373ffffffffffffffffffffffffffffffffffffffff1673ffffffffffffffffffffffffffffffffffffffff16815260200190815260200160002081905550600660003373ffffffffffffffffffffffffffffffffffffffff1673ffffffffffffffffffffffffffffffffffffffff16815260200190815260200160002060009054906101000a900460ff16610982576004339080600181540180825580915050600190039060005260206000200160009091909190916101000a81548173ffffffffffffffffffffffffffffffffffffffff021916908373ffffffffffffffffffffffffffffffffffffffff1602179055505b6001600760003373ffffffffffffffffffffffffffffffffffffffff1673ffffffffffffffffffffffffffffffffffffffff16815260200190815260200160002060006101000a81548160ff0219169083151502179055506001600660003373ffffffffffffffffffffffffffffffffffffffff1673ffffffffffffffffffffffffffffffffffffffff16815260200190815260200160002060006101000a81548160ff02191690831515021790555050565b60048181548110610a4557600080fd5b906000526020600020016000915054906101000a900473ffffffffffffffffffffffffffffffffffffffff1681565b600081359050610a83816110e4565b92915050565b600081519050610a98816110fb565b92915050565b600081359050610aad81611112565b92915050565b600060208284031215610ac957610ac861102d565b5b6000610ad784828501610a74565b91505092915050565b600060208284031215610af657610af561102d565b5b6000610b0484828501610a89565b91505092915050565b600060208284031215610b2357610b2261102d565b5b6000610b3184828501610a9e565b91505092915050565b610b4381610e33565b82525050565b610b5281610e45565b82525050565b610b6181610e7b565b82525050565b610b7081610e8d565b82525050565b6000610b8182610d90565b610b8b8185610d9b565b9350610b9b818560208601610ec3565b610ba481611032565b840191505092915050565b6000610bbc602883610d9b565b9150610bc782611043565b604082019050919050565b6000610bdf601583610d9b565b9150610bea82611092565b602082019050919050565b6000610c02601483610d9b565b9150610c0d826110bb565b602082019050919050565b610c2181610e71565b82525050565b6000602082019050610c3c6000830184610b3a565b92915050565b6000606082019050610c576000830186610b3a565b610c646020830185610b3a565b610c716040830184610c18565b949350505050565b6000604082019050610c8e6000830185610b3a565b610c9b6020830184610c18565b9392505050565b6000602082019050610cb76000830184610b49565b92915050565b6000602082019050610cd26000830184610b58565b92915050565b6000602082019050610ced6000830184610b67565b92915050565b60006020820190508181036000830152610d0d8184610b76565b905092915050565b60006020820190508181036000830152610d2e81610baf565b9050919050565b60006020820190508181036000830152610d4e81610bd2565b9050919050565b60006020820190508181036000830152610d6e81610bf5565b9050919050565b6000602082019050610d8a6000830184610c18565b92915050565b600081519050919050565b600082825260208201905092915050565b6000610db782610e71565b9150610dc283610e71565b9250827fffffffffffffffffffffffffffffffffffffffffffffffffffffffffffffffff03821115610df757610df6610f71565b5b828201905092915050565b6000610e0d82610e71565b9150610e1883610e71565b925082610e2857610e27610fa0565b5b828204905092915050565b6000610e3e82610e51565b9050919050565b60008115159050919050565b600073ffffffffffffffffffffffffffffffffffffffff82169050919050565b6000819050919050565b6000610e8682610e9f565b9050919050565b6000610e9882610e9f565b9050919050565b6000610eaa82610eb1565b9050919050565b6000610ebc82610e51565b9050919050565b60005b83811015610ee1578082015181840152602081019050610ec6565b83811115610ef0576000848401525b50505050565b60006002820490506001821680610f0e57607f821691505b60208210811415610f2257610f21610fcf565b5b50919050565b6000610f3382610e71565b91507fffffffffffffffffffffffffffffffffffffffffffffffffffffffffffffffff821415610f6657610f65610f71565b5b600182019050919050565b7f4e487b7100000000000000000000000000000000000000000000000000000000600052601160045260246000fd5b7f4e487b7100000000000000000000000000000000000000000000000000000000600052601260045260246000fd5b7f4e487b7100000000000000000000000000000000000000000000000000000000600052602260045260246000fd5b7f4e487b7100000000000000000000000000000000000000000000000000000000600052603260045260246000fd5b600080fd5b6000601f19601f8301169050919050565b7f5374616b696e672062616c616e63652073686f756c642062652067726561746560008201527f72207468616e2030000000000000000000000000000000000000000000000000602082015250565b7f616d6f756e742063616e6e6f74206265207a65726f0000000000000000000000600082015250565b7f63616c6c6572206d757374206265206f776e6572000000000000000000000000600082015250565b6110ed81610e33565b81146110f857600080fd5b50565b61110481610e45565b811461110f57600080fd5b50565b61111b81610e71565b811461112657600080fd5b5056fea26469706673582212201c0f4a58ead5e24fe280c779fa0335a8632cb518a78829e01e9ab90d8513c06a64736f6c63430008070033",
  "immutableReferences": {},
  "source": "// SPDX-License-Identifier: MIT\npragma solidity >=0.4.22 <0.9.0;\n\nimport './RWD.sol';\nimport \"./Tether.sol\";\n\n         \ncontract DecentralBank {\n  string public name=\"Decentral Bank\";\n  address public owner;\n  Tether public tether;\n  RWD public rwd;\n\n  \nconstructor (RWD _rwd,Tether _tether){\n    rwd=_rwd;\n    tether=_tether;\n    owner=msg.sender;\n\n}\naddress[] public stakers;\nmapping(address=>uint) public stakingBalance;\n// You can't loop through the keys or count the keys in a mapping. to keep tracking if this address is used for staking, we create another mapping\nmapping(address=>bool) public hasStaked;\nmapping(address=>bool) public isStaking;\n\n\n//In order for this to work we need to have permission\n// staking function. we are depositing out tokens into this contract\nfunction depositTokens(uint _amount) public{\n  require(_amount>0,'amount cannot be zero');\n  // transfer tether to this contract address for staking\n  // transferFrom means it is coming from third party\n  // all erc20 tokens have trsnferFrom \n  tether.transferFrom(msg.sender,address(this), _amount);\n  // Update the staking balance\n  // Every key maps to something. If no value has been set yet, then the value is 0.\n  stakingBalance[msg.sender]=stakingBalance[msg.sender]+_amount;\n  if(!hasStaked[msg.sender]){\n    stakers.push(msg.sender);\n  }\n  isStaking[msg.sender]=true;\n  hasStaked[msg.sender]=true;\n}\n\n// Issue rewards\nfunction issueTokens() public {\n  require(msg.sender==owner,'caller must be owner');\n  for(uint i=0;i<stakers.length;i++){\n    address recipient=stakers[i];\n    uint balance=stakingBalance[recipient]/9;\n    if(balance>0){\n           rwd.transfer(recipient, balance);\n    }\n }\n\n}\n\n \n\nfunction unstakeTokens() public {\n  uint balance=stakingBalance[msg.sender];\n  require(balance>0,'Staking balance should be greater than 0');\n  tether.transfer(msg.sender, balance);\n  stakingBalance[msg.sender]=0;\n  isStaking[msg.sender]=false;\n}\n\n}\n",
  "sourcePath": "/home/tesla/Documents/projects/ethereum/clarion-ethereum/contracts/DecentralBank.sol",
  "compiler": {
    "name": "solc",
    "version": "0.8.7+commit.e28d00a7.Emscripten.clang"
  },
  "schemaVersion": "3.4.3",
  "updatedAt": "2021-09-04T02:10:52.942Z",
  "networkType": "ethereum",
  "devdoc": {
    "kind": "dev",
    "methods": {},
    "version": 1
  },
  "userdoc": {
    "kind": "user",
    "methods": {},
    "version": 1
  }
}